{
  "contractName": "ETH",
  "abi": [
    {
      "constant": false,
      "inputs": [
        {
          "internalType": "string",
          "name": "arg0",
          "type": "string"
        },
        {
          "internalType": "string",
          "name": "arg1",
          "type": "string"
        }
      ],
      "name": "operate",
      "outputs": [],
      "payable": false,
      "stateMutability": "nonpayable",
      "type": "function"
    },
    {
      "constant": true,
      "inputs": [
        {
          "internalType": "string",
          "name": "arg0",
          "type": "string"
        }
      ],
      "name": "get_value",
      "outputs": [
        {
          "internalType": "uint256",
          "name": "balance",
          "type": "uint256"
        }
      ],
      "payable": false,
      "stateMutability": "view",
      "type": "function"
    }
  ],
  "bytecode": "0x608060405234801561001057600080fd5b50610397806100206000396000f3fe608060405234801561001057600080fd5b50600436106100365760003560e01c80631ff1f33c1461003b578063ef1aa82e146100f3575b600080fd5b6100e16004803603602081101561005157600080fd5b81019060208101813564010000000081111561006c57600080fd5b82018360208201111561007e57600080fd5b803590602001918460018302840111640100000000831117156100a057600080fd5b91908080601f016020809104026020016040519081016040528093929190818152602001838380828437600092019190915250929550610222945050505050565b60408051918252519081900360200190f35b6102206004803603604081101561010957600080fd5b81019060208101813564010000000081111561012457600080fd5b82018360208201111561013657600080fd5b8035906020019184600183028401116401000000008311171561015857600080fd5b91908080601f01602080910402602001604051908101604052809392919081815260200183838082843760009201919091525092959493602081019350359150506401000000008111156101ab57600080fd5b8201836020820111156101bd57600080fd5b803590602001918460018302840111640100000000831117156101df57600080fd5b91908080601f016020809104026020016040519081016040528093929190818152602001838380828437600092019190915250929550610289945050505050565b005b600080826040518082805190602001908083835b602083106102555780518252601f199092019160209182019101610236565b51815160209384036101000a6000190180199092169116179052920194855250604051938490030190922054949350505050565b60016000836040518082805190602001908083835b602083106102bd5780518252601f19909201916020918201910161029e565b51815160209384036101000a6000190180199092169116179052920194855250604051938490038101842080549590950190945550508251600192600092859290918291908401908083835b602083106103285780518252601f199092019160209182019101610309565b51815160209384036101000a600019018019909216911617905292019485525060405193849003019092208054939093019092555050505056fea265627a7a723158208269706eaec5bb1ac84b82f0a7d4f9808c8a1871bbce85340faad37cc84a466864736f6c63430005100032",
  "source": "pragma solidity >=0.4.0 <0.7.0;\n\ncontract ETH {\n    mapping(string => uint256) account;\n\n    function operate(string memory arg0, string memory arg1) public {\n        account[arg0] += 1;\n        account[arg1] += 1;\n    }\n\n    function get_value(string memory arg0) public view returns (uint256 balance) {\n        return account[arg0];\n    }\n}",
  "sourcePath": "/home/cezhang/cole_suppress/eth-execution-engine/contracts/contracts/eth.sol",
  "compiler": {
    "name": "solc",
    "version": "0.5.16+commit.9c3226ce.Emscripten.clang"
  },
  "schemaVersion": "3.4.16",
  "updatedAt": "2025-09-27T10:18:02.310Z",
  "devdoc": {
    "methods": {}
  },
  "userdoc": {
    "methods": {}
  }
}