{
  "contractName": "IO",
  "abi": [
    {
      "constant": true,
      "inputs": [
        {
          "internalType": "bytes32",
          "name": "key",
          "type": "bytes32"
        }
      ],
      "name": "get",
      "outputs": [
        {
          "internalType": "bytes",
          "name": "",
          "type": "bytes"
        }
      ],
      "payable": false,
      "stateMutability": "view",
      "type": "function"
    },
    {
      "constant": false,
      "inputs": [
        {
          "internalType": "bytes32",
          "name": "key",
          "type": "bytes32"
        },
        {
          "internalType": "bytes",
          "name": "value",
          "type": "bytes"
        }
      ],
      "name": "set",
      "outputs": [],
      "payable": false,
      "stateMutability": "nonpayable",
      "type": "function"
    },
    {
      "constant": false,
      "inputs": [
        {
          "internalType": "uint256",
          "name": "start_key",
          "type": "uint256"
        },
        {
          "internalType": "uint256",
          "name": "size",
          "type": "uint256"
        }
      ],
      "name": "write",
      "outputs": [],
      "payable": false,
      "stateMutability": "nonpayable",
      "type": "function"
    },
    {
      "constant": true,
      "inputs": [
        {
          "internalType": "uint256",
          "name": "start_key",
          "type": "uint256"
        },
        {
          "internalType": "uint256",
          "name": "size",
          "type": "uint256"
        }
      ],
      "name": "scan",
      "outputs": [],
      "payable": false,
      "stateMutability": "view",
      "type": "function"
    },
    {
      "constant": true,
      "inputs": [
        {
          "internalType": "uint256",
          "name": "start_key",
          "type": "uint256"
        },
        {
          "internalType": "uint256",
          "name": "size",
          "type": "uint256"
        }
      ],
      "name": "revert_scan",
      "outputs": [],
      "payable": false,
      "stateMutability": "view",
      "type": "function"
    }
  ],
  "bytecode": "0x608060405234801561001057600080fd5b5061054b806100206000396000f3fe608060405234801561001057600080fd5b50600436106100575760003560e01c80638eaa6ac01461005c5780639c0e3f7a146100ee578063aac438c014610113578063c5221bc4146101c0578063db6c4acc146101e3575b600080fd5b6100796004803603602081101561007257600080fd5b5035610206565b6040805160208082528351818301528351919283929083019185019080838360005b838110156100b357818101518382015260200161009b565b50505050905090810190601f1680156100e05780820380516001836020036101000a031916815260200191505b509250505060405180910390f35b6101116004803603604081101561010457600080fd5b50803590602001356102a5565b005b6101116004803603604081101561012957600080fd5b8135919081019060408101602082013564010000000081111561014b57600080fd5b82018360208201111561015d57600080fd5b8035906020019184600183028401116401000000008311171561017f57600080fd5b91908080601f0160208091040260200160405190810160405280939291908181526020018383808284376000920191909152509295506102db945050505050565b610111600480360360408110156101d657600080fd5b50803590602001356102f8565b610111600480360360408110156101f957600080fd5b5080359060200135610328565b6000818152602081815260409182902080548351601f60026000196101006001861615020190931692909204918201849004840281018401909452808452606093928301828280156102995780601f1061026e57610100808354040283529160200191610299565b820191906000526020600020905b81548152906001019060200180831161027c57829003601f168201915b50505050509050919050565b60005b818110156102d6576102ce6102be828501610352565b6102c9838601610355565b6102db565b6001016102a8565b505050565b60008281526020818152604090912082516102d6928401906103e8565b606060005b8281101561032257610318610313828601610352565b610206565b91506001016102fd565b50505050565b606060005b82811015610322576103486103136001838688010303610352565b915060010161032d565b90565b60408051606480825260a0820190925260609160208201818038833901905050905060005b60648110156103e2576040518060c001604052806096815260200161048160969139816032850601815181106103ac57fe5b602001015160f81c60f81b8282815181106103c357fe5b60200101906001600160f81b031916908160001a90535060010161037a565b50919050565b828054600181600116156101000203166002900490600052602060002090601f016020900481019282601f1061042957805160ff1916838001178555610456565b82800160010185558215610456579182015b8281111561045657825182559160200191906001019061043b565b50610462929150610466565b5090565b61035291905b80821115610462576000815560010161046c56fe6162636465666768696a6b6c6d6e6f707172737475767778792324255e262a28295f2b5b5d7b7d7c3b3a2c2e2f3c3e3f607e6162636465666768696a6b6c6d6e6f707172737475767778792324255e262a28295f2b5b5d7b7d7c3b3a2c2e2f3c3e3f607e6162636465666768696a6b6c6d6e6f707172737475767778792324255e262a28295f2b5b5d7b7d7c3b3a2c2e2f3c3e3f607ea265627a7a72315820383441fbb8e827277954a8093daab9583466d5603e45cd7c5a27d46538a9d4ce64736f6c63430005100032",
  "source": "pragma solidity >=0.4.0 <0.7.0;\n\ncontract IO {\n    bytes constant ALPHABET = \"abcdefghijklmnopqrstuvwxy#$%^&*()_+[]{}|;:,./<>?`~abcdefghijklmnopqrstuvwxy#$%^&*()_+[]{}|;:,./<>?`~abcdefghijklmnopqrstuvwxy#$%^&*()_+[]{}|;:,./<>?`~\";\n\n    function getKey(uint256 k) internal pure returns (bytes32) {\n        return bytes32(k);\n    }\n\n    function getVal(uint256 k) internal pure returns (bytes memory ret) {\n        ret = new bytes(100);\n        for (uint256 i = 0; i < 100; i++) {\n            ret[i] = ALPHABET[(k % 50) + i];\n        }\n    }\n\n    mapping(bytes32 => bytes) store;\n\n    function get(bytes32 key) public view returns (bytes memory) {\n        return store[key];\n    }\n\n    function set(bytes32 key, bytes memory value) public {\n        store[key] = value;\n    }\n\n    function write(uint256 start_key, uint256 size) public {\n        for (uint256 i = 0; i < size; i++) {\n            set(getKey(start_key + i), getVal(start_key + i));\n        }\n    }\n\n    function scan(uint256 start_key, uint256 size) public view {\n        bytes memory ret;\n        for (uint256 i = 0; i < size; i++) {\n            ret = get(getKey(start_key + i));\n        }\n    }\n\n    function revert_scan(uint256 start_key, uint256 size) public view {\n        bytes memory ret;\n        for (uint256 i = 0; i < size; i++) {\n            ret = get(getKey(start_key + size - i - 1));\n        }\n    }\n}\n",
  "sourcePath": "/home/cezhang/cole_suppress/eth-execution-engine/contracts/contracts/ioheavy.sol",
  "compiler": {
    "name": "solc",
    "version": "0.5.16+commit.9c3226ce.Emscripten.clang"
  },
  "schemaVersion": "3.4.16",
  "updatedAt": "2025-09-27T10:18:02.312Z",
  "devdoc": {
    "methods": {}
  },
  "userdoc": {
    "methods": {}
  }
}