{
  "contractName": "SimpleStorage",
  "abi": [
    {
      "inputs": [],
      "payable": false,
      "stateMutability": "nonpayable",
      "type": "constructor"
    },
    {
      "constant": true,
      "inputs": [
        {
          "internalType": "uint256",
          "name": "",
          "type": "uint256"
        }
      ],
      "name": "data",
      "outputs": [
        {
          "internalType": "uint256",
          "name": "",
          "type": "uint256"
        }
      ],
      "payable": false,
      "stateMutability": "view",
      "type": "function"
    },
    {
      "constant": false,
      "inputs": [
        {
          "internalType": "uint256",
          "name": "key",
          "type": "uint256"
        },
        {
          "internalType": "uint256",
          "name": "value",
          "type": "uint256"
        }
      ],
      "name": "set",
      "outputs": [],
      "payable": false,
      "stateMutability": "nonpayable",
      "type": "function"
    },
    {
      "constant": true,
      "inputs": [
        {
          "internalType": "uint256",
          "name": "key",
          "type": "uint256"
        }
      ],
      "name": "get",
      "outputs": [
        {
          "internalType": "uint256",
          "name": "",
          "type": "uint256"
        }
      ],
      "payable": false,
      "stateMutability": "view",
      "type": "function"
    }
  ],
  "bytecode": "0x608060405234801561001057600080fd5b5060016000908152602052602a7fada5013122d395ba3c54772283fb069b10426056ef8ca54750cb9bb552a59e7d556101148061004e6000396000f3fe6080604052348015600f57600080fd5b5060043610603c5760003560e01c80631ab06ee51460415780639507d39a146063578063f0ba844014608f575b600080fd5b606160048036036040811015605557600080fd5b508035906020013560a9565b005b607d60048036036020811015607757600080fd5b503560bb565b60408051918252519081900360200190f35b607d6004803603602081101560a357600080fd5b503560cd565b60009182526020829052604090912055565b60009081526020819052604090205490565b6000602081905290815260409020548156fea265627a7a72315820c951b15b89ca4f251ced8524d40279607ec03ad7066bd9deccdd23f4be257f4f64736f6c63430005100032",
  "source": "pragma solidity >=0.4.0 <0.7.0;\n\ncontract SimpleStorage {\n    mapping(uint256 => uint256) public data;\n\n    constructor() public {\n        data[1] = 42;\n    }\n\n    function set(uint256 key, uint256 value) public {\n        data[key] = value;\n    }\n\n    function get(uint256 key) public view returns (uint256) {\n        return data[key];\n    }\n}\n",
  "sourcePath": "/home/cezhang/cole_suppress/eth-execution-engine/contracts/contracts/simple_storage.sol",
  "compiler": {
    "name": "solc",
    "version": "0.5.16+commit.9c3226ce.Emscripten.clang"
  },
  "schemaVersion": "3.4.16",
  "updatedAt": "2025-09-27T10:18:02.315Z",
  "devdoc": {
    "methods": {}
  },
  "userdoc": {
    "methods": {}
  }
}