{
  "contractName": "SmallBank",
  "abi": [
    {
      "constant": false,
      "inputs": [
        {
          "internalType": "string",
          "name": "arg0",
          "type": "string"
        },
        {
          "internalType": "string",
          "name": "arg1",
          "type": "string"
        }
      ],
      "name": "almagate",
      "outputs": [],
      "payable": false,
      "stateMutability": "nonpayable",
      "type": "function"
    },
    {
      "constant": true,
      "inputs": [
        {
          "internalType": "string",
          "name": "arg0",
          "type": "string"
        }
      ],
      "name": "getBalance",
      "outputs": [
        {
          "internalType": "uint256",
          "name": "balance",
          "type": "uint256"
        }
      ],
      "payable": false,
      "stateMutability": "view",
      "type": "function"
    },
    {
      "constant": false,
      "inputs": [
        {
          "internalType": "string",
          "name": "arg0",
          "type": "string"
        },
        {
          "internalType": "uint256",
          "name": "arg1",
          "type": "uint256"
        }
      ],
      "name": "updateBalance",
      "outputs": [],
      "payable": false,
      "stateMutability": "nonpayable",
      "type": "function"
    },
    {
      "constant": false,
      "inputs": [
        {
          "internalType": "string",
          "name": "arg0",
          "type": "string"
        },
        {
          "internalType": "uint256",
          "name": "arg1",
          "type": "uint256"
        }
      ],
      "name": "updateSaving",
      "outputs": [],
      "payable": false,
      "stateMutability": "nonpayable",
      "type": "function"
    },
    {
      "constant": false,
      "inputs": [
        {
          "internalType": "string",
          "name": "arg0",
          "type": "string"
        },
        {
          "internalType": "string",
          "name": "arg1",
          "type": "string"
        },
        {
          "internalType": "uint256",
          "name": "arg2",
          "type": "uint256"
        }
      ],
      "name": "sendPayment",
      "outputs": [],
      "payable": false,
      "stateMutability": "nonpayable",
      "type": "function"
    },
    {
      "constant": false,
      "inputs": [
        {
          "internalType": "string",
          "name": "arg0",
          "type": "string"
        },
        {
          "internalType": "uint256",
          "name": "arg1",
          "type": "uint256"
        }
      ],
      "name": "writeCheck",
      "outputs": [],
      "payable": false,
      "stateMutability": "nonpayable",
      "type": "function"
    }
  ],
  "bytecode": "0x608060405234801561001057600080fd5b50610c96806100206000396000f3fe608060405234801561001057600080fd5b50600436106100625760003560e01c80630b488b37146100675780630be8374d1461010f5780633a51d246146101b5578063870187eb1461026b578063901d706f14610311578063ca3054351461043a575b600080fd5b61010d6004803603604081101561007d57600080fd5b810190602081018135600160201b81111561009757600080fd5b8201836020820111156100a957600080fd5b803590602001918460018302840111600160201b831117156100ca57600080fd5b91908080601f0160208091040260200160405190810160405280939291908181526020018383808284376000920191909152509295505091359250610565915050565b005b61010d6004803603604081101561012557600080fd5b810190602081018135600160201b81111561013f57600080fd5b82018360208201111561015157600080fd5b803590602001918460018302840111600160201b8311171561017257600080fd5b91908080601f0160208091040260200160405190810160405280939291908181526020018383808284376000920191909152509295505091359250610637915050565b610259600480360360208110156101cb57600080fd5b810190602081018135600160201b8111156101e557600080fd5b8201836020820111156101f757600080fd5b803590602001918460018302840111600160201b8311171561021857600080fd5b91908080601f0160208091040260200160405190810160405280939291908181526020018383808284376000920191909152509295506107e8945050505050565b60408051918252519081900360200190f35b61010d6004803603604081101561028157600080fd5b810190602081018135600160201b81111561029b57600080fd5b8201836020820111156102ad57600080fd5b803590602001918460018302840111600160201b831117156102ce57600080fd5b91908080601f01602080910402602001604051908101604052809392919081815260200183838082843760009201919091525092955050913592506108bb915050565b61010d6004803603604081101561032757600080fd5b810190602081018135600160201b81111561034157600080fd5b82018360208201111561035357600080fd5b803590602001918460018302840111600160201b8311171561037457600080fd5b91908080601f0160208091040260200160405190810160405280939291908181526020018383808284376000920191909152509295949360208101935035915050600160201b8111156103c657600080fd5b8201836020820111156103d857600080fd5b803590602001918460018302840111600160201b831117156103f957600080fd5b91908080601f016020809104026020016040519081016040528093929190818152602001838380828437600092019190915250929550610958945050505050565b61010d6004803603606081101561045057600080fd5b810190602081018135600160201b81111561046a57600080fd5b82018360208201111561047c57600080fd5b803590602001918460018302840111600160201b8311171561049d57600080fd5b91908080601f0160208091040260200160405190810160405280939291908181526020018383808284376000920191909152509295949360208101935035915050600160201b8111156104ef57600080fd5b82018360208201111561050157600080fd5b803590602001918460018302840111600160201b8311171561052257600080fd5b91908080601f0160208091040260200160405190810160405280939291908181526020018383808284376000920191909152509295505091359250610abd915050565b600080836040518082805190602001908083835b602083106105985780518252601f199092019160209182019101610579565b51815160209384036101000a6000190180199092169116179052920194855250604051938490038101842054875190955086948587019450600093508892909182918401908083835b602083106106005780518252601f1990920191602091820191016105e1565b51815160209384036101000a6000190180199092169116179052920194855250604051938490030190922092909255505050505050565b60006001836040518082805190602001908083835b6020831061066b5780518252601f19909201916020918201910161064c565b51815160209384036101000a60001901801990921691161790529201948552506040519384900381018420548751909550600094859450889350918291908401908083835b602083106106cf5780518252601f1990920191602091820191016106b0565b51815160209384036101000a600019018019909216911617905292019485525060405193849003019092205492508491505082820181101561077a576001818403036001866040518082805190602001908083835b602083106107435780518252601f199092019160209182019101610724565b51815160209384036101000a6000190180199092169116179052920194855250604051938490030190922092909255506107e19050565b8083036001866040518082805190602001908083835b602083106107af5780518252601f199092019160209182019101610790565b51815160209384036101000a600019018019909216911617905292019485525060405193849003019092209290925550505b5050505050565b6000806000836040518082805190602001908083835b6020831061081d5780518252601f1990920191602091820191016107fe565b51815160209384036101000a6000190180199092169116179052920194855250604051938490038101842054875190955060009460019450889350918291908401908083835b602083106108825780518252601f199092019160209182019101610863565b51815160209384036101000a60001901801990921691161790529201948552506040519384900301909220549390930195945050505050565b60006001836040518082805190602001908083835b602083106108ef5780518252601f1990920191602091820191016108d0565b51815160001960209485036101000a0190811690199190911617905292019485525060405193849003810184205487519095508694858701945060019350889290918291840190808383602083106106005780518252601f1990920191602091820191016105e1565b600080836040518082805190602001908083835b6020831061098b5780518252601f19909201916020918201910161096c565b51815160209384036101000a6000190180199092169116179052920194855250604051938490038101842054865190955060009460019450879350918291908401908083835b602083106109f05780518252601f1990920191602091820191016109d1565b51815160209384036101000a6000190180199092169116179052920194855250604051938490038101842054885190955060009460019450899350918291908401908083835b60208310610a555780518252601f199092019160209182019101610a36565b51815160001960209485036101000a01908116901991909116179052920194855250604051938490038101842094909455505084518484019260009287929091829190840190808383602083106106005780518252601f1990920191602091820191016105e1565b60006001846040518082805190602001908083835b60208310610af15780518252601f199092019160209182019101610ad2565b51815160209384036101000a6000190180199092169116179052920194855250604051938490038101842054875190955060009460019450889350918291908401908083835b60208310610b565780518252601f199092019160209182019101610b37565b51815160209384036101000a60001901801990921691161790529201948552506040519384900381018420548951968890039690880195508794879450600193508a92909182918401908083835b60208310610bc35780518252601f199092019160209182019101610ba4565b51815160209384036101000a6000190180199092169116179052920194855250604051938490038101842094909455505086518492600192899290918291908401908083835b60208310610c285780518252601f199092019160209182019101610c09565b51815160209384036101000a6000190180199092169116179052920194855250604051938490030190922092909255505050505050505056fea265627a7a7231582031c5e857737830de30574606fb06e87be52be42c74a467777cc13484a978bf7364736f6c63430005100032",
  "source": "pragma solidity >=0.4.0 <0.7.0;\n\ncontract SmallBank {\n    mapping(string => uint256) savingStore;\n    mapping(string => uint256) checkingStore;\n\n    function almagate(string memory arg0, string memory arg1) public {\n        uint256 bal1 = savingStore[arg0];\n        uint256 bal2 = checkingStore[arg1];\n\n        checkingStore[arg0] = 0;\n        savingStore[arg1] = bal1 + bal2;\n    }\n\n    function getBalance(string memory arg0)\n        public\n        view\n        returns (uint256 balance)\n    {\n        uint256 bal1 = savingStore[arg0];\n        uint256 bal2 = checkingStore[arg0];\n\n        balance = bal1 + bal2;\n        return balance;\n    }\n\n    function updateBalance(string memory arg0, uint256 arg1) public {\n        uint256 bal1 = checkingStore[arg0];\n        uint256 bal2 = arg1;\n\n        checkingStore[arg0] = bal1 + bal2;\n    }\n\n    function updateSaving(string memory arg0, uint256 arg1) public {\n        uint256 bal1 = savingStore[arg0];\n        uint256 bal2 = arg1;\n\n        savingStore[arg0] = bal1 + bal2;\n    }\n\n    function sendPayment(\n        string memory arg0,\n        string memory arg1,\n        uint256 arg2\n    ) public {\n        uint256 bal1 = checkingStore[arg0];\n        uint256 bal2 = checkingStore[arg1];\n        uint256 amount = arg2;\n\n        bal1 -= amount;\n        bal2 += amount;\n\n        checkingStore[arg0] = bal1;\n        checkingStore[arg1] = bal2;\n    }\n\n    function writeCheck(string memory arg0, uint256 arg1) public {\n        uint256 bal1 = checkingStore[arg0];\n        uint256 bal2 = savingStore[arg0];\n        uint256 amount = arg1;\n\n        if (amount < bal1 + bal2) {\n            checkingStore[arg0] = bal1 - amount - 1;\n        } else {\n            checkingStore[arg0] = bal1 - amount;\n        }\n    }\n}\n",
  "sourcePath": "/home/cezhang/cole_suppress/eth-execution-engine/contracts/contracts/smallbank.sol",
  "compiler": {
    "name": "solc",
    "version": "0.5.16+commit.9c3226ce.Emscripten.clang"
  },
  "schemaVersion": "3.4.16",
  "updatedAt": "2025-09-27T10:18:02.316Z",
  "devdoc": {
    "methods": {}
  },
  "userdoc": {
    "methods": {}
  }
}